:020000040800F2
:10000000B00900209D050008810200088302000855
:100010008F0200089B020008A702000800000000F1
:10002000000000000000000000000000B302000813
:10003000B502000800000000B3050008B702000880
:10004000B7050008B7050008B7050008BB0200089F
:10005000B7050008B7050008B9020008B705000891
:10006000B7050008B7050008B7050008B705000880
:10007000B7050008B7050008B7050008B705000870
:10008000B7050008B7050008B7050008B705000860
:10009000B7050008B7050008B7050008B705000850
:1000A000B7050008B7050008B7050008B705000840
:1000B000B7050008B7050008B7050008B705000830
:1000C000B7050008B7050008B7050008B705000820
:1000D000B70500089B290008234900080B2B0008DE
:1000E000B7050008B7050008B7050008B705000800
:1000F000B7050008B7050008B7050008B7050008F0
:10010000B7050008B7050008B7050008B7050008DF
:10011000B7050008B7050008B7050008672B0008F9
:10012000B7050008B7050008B7050008B7050008BF
:1001300000F002F800F094F80AA090E8000C824465
:100140008344AAF10107DA4501D100F089F8AFF242
:10015000090EBAE80F0013F0010F18BFFB1A43F0A5
:1001600001031847A8700000C8700000103A24BFAF
:1001700078C878C1FAD8520724BF30C830C144BF0C
:1001800004680C607047000000230024002500264E
:10019000103A28BF78C1FBD8520728BF30C148BFEA
:1001A0000B6070476E2905F05680702905F0AD830D
:1001B000662906F0BD86652906F0BA86672906F02D
:1001C000B7866129AFF3008003681B0A28BF41F09E
:1001D0008001692904F01285642904F00F857529CE
:1001E00004F00C856F2905F03B83782905F07983AD
:1001F000E92905F0D582E42905F0D282F52905F038
:10020000CF82EF2905F03883F82905F07883036859
:10021000DB0928BF41F08001632905F0A58473291B
:1002200005F0AA84E32905F0B584F32905F0BA8422
:10023000002070471FB59DE8030004F01BFF05F088
:10024000E5FB04000020002106F04EFA401C60602F
:100250000020002106F032FAE0601FBD10B510BD8D
:1002600005F08AFD1146FFF7E5FF02F00BFF05F0F0
:10027000B6FD03B4FFF7F2FF03BC05F023FE000058
:1002800070470EA11C4802F064FB00BFFEE71BA1F3
:10029000194802F05EFB00BFFEE727A1164802F0F6
:1002A00058FB00BFFEE733A1134802F052FB00BF2A
:1002B000FEE7704770477047704770470D0A2A2A5B
:1002C0002A2A2A2A2A2A2A2A2A2A2A2A2A2A2A2A8E
:1002D0002A486172644661756C745F48616E646C33
:1002E00065722A2A2A2A2A2A2A2A2A2A2A2A2A2AEB
:1002F0002A2A2A2A2A0D0A00003801400D0A2A2A31
:100300002A2A2A2A2A2A2A2A2A2A2A2A2A2A2A2A4D
:100310002A4D656D4D616E6167655F48616E646C05
:1003200065722A2A2A2A2A2A2A2A2A2A2A2A2A2AAA
:100330002A2A2A2A2A0D0A000D0A2A2A2A2A2A2AC1
:100340002A2A2A2A2A2A2A2A2A2A2A2A2A42757361
:100350004661756C745F48616E646C65722A2A2A06
:100360002A2A2A2A2A2A2A2A2A2A2A2A2A2A2A2AED
:100370000D0A00000D0A2A2A2A2A2A2A2A2A2A2AAB
:100380002A2A2A2A2A2A2A2A2A5573616765466157
:10039000756C745F48616E646C65722A2A2A2A2A19
:1003A0002A2A2A2A2A2A2A2A2A2A2A2A2A2A0D0AEA
:1003B000000000000CB50020019000906C4800681F
:1003C00040F480306A49086000BF6948006800F462
:1003D000003000900198401C0190009818B90198D5
:1003E000B0F5A06FF1D16248006800F4003010B1A0
:1003F0000120009001E0002000900098012843D1E6
:100400005C48006840F010005A49086008460068DF
:1004100020F0030008600846006840F00200086011
:10042000534840685249486008464068486008465A
:10043000406840F4806048600846406820F47C10C2
:1004400048600846406840F48810486008460068E4
:1004500040F08070086000BF4548006800F0007000
:100460000028F9D04248406820F003004049486025
:100470000846406840F00200486000BF3C484068C1
:1004800000F00C000828F9D10CBD10B5FFF792FF61
:1004900010BD10B53648006840F0010034490860CE
:1004A00008464068344908403149486008460068B9
:1004B000324908402E4908600846006820F4802030
:1004C00008600846406820F4FE0048604FF41F00B2
:1004D0008860FFF7DAFF4FF000602949086010BD1F
:1004E00010B5002100200022214B5B6803F00C01B5
:1004F00021B1042906D0082928D107E0214B224C3C
:10050000236027E0214B204C236023E0184B5B68DD
:1005100003F47010164B5B6803F48032022303EB84
:10052000904022B91A4B4343174C23600DE0104B07
:100530005B6803F4003323B1164B4343124C236032
:1005400003E0124B4343104C236003E00D4B0E4C71
:10055000236000BF00BF064B5B68C3F303130E4C60
:10056000E15C094B1B68CB40074C236010BD0000C9
:1005700000100240002002400000FFF8FFFFF6FEDE
:1005800008ED00E000127A0000000020001BB70018
:1005900000093D00808D5B00040000200948804771
:1005A00009480047FEE7FEE7FEE7FEE7FEE7FEE755
:1005B000FEE7FEE7FEE7FEE704480549054A064B6D
:1005C000704700009304000831010008B0010020CA
:1005D000B0090020B0050020B005002031490143DA
:1005E000314A1160704770B5002100230F22C47892
:1005F00004B32D4C246804F4E064C4F5E064210ADB
:10060000C1F10403CA40447804FA03F18478144029
:1006100021430901254C0678A155047804F01F05F3
:100620000124AC4005786D11AD0005F1E025C5F859
:10063000004109E0047804F01F050124AC401C4D82
:100640000678761145F8264070BD1A4A0A400243E2
:10065000154B1B1F1A60704739B1134A121D1268DF
:100660000243114B1B1D1A6006E00F4A121D12684F
:1006700082430D4B1B1D1A607047042808D14FF0B0
:10068000E021096941F004014FF0E022116107E027
:100690004FF0E021096921F004014FF0E0221161DF
:1006A000704700000000FA050CED00E000E400E0F7
:1006B00080E100E080FFFF1F10B50446CC48844273
:1006C00008D10121042000F02DFB0021042000F0BE
:1006D00029FB46E0C748844208D10121082000F0E8
:1006E00021FB0021082000F01DFB3AE0C2488442B3
:1006F00008D10121102000F015FB0021102000F08E
:1007000011FB2EE0BD48844208D10121202000F0D9
:1007100009FB0021202000F005FB22E0B8488442BC
:1007200008D10121402000F0FDFA0021402000F016
:10073000F9FA16E0B348844208D10121802000F084
:10074000F1FA0021802000F0EDFA0AE0AE48844280
:1007500007D10121801500F0E5FA0021A01500F075
:10076000E1FA10BD10B50121084600F0DBFA0021C6
:10077000012000F0D7FA10BD2DE9F0410246002516
:100780000026002000230024002791F803C00CF06D
:100790000F0591F803C00CF0100CBCF1000F03D052
:1007A00091F802C04CEA050591F800C0BCF1000FB9
:1007B00031D0146800202BE04FF0010C0CFA00F34C
:1007C000B1F800C00CEA03069E4220D183004FF02E
:1007D0000F0C0CFA03F7BC4305FA03FC4CEA0404C3
:1007E00091F803C0BCF1280F06D14FF0010C0CFAB0
:1007F00000FCC2F814C00AE091F803C0BCF1480F35
:1008000005D14FF0010C0CFA00FCC2F810C0401CDE
:100810000828D1D31460B1F800C0BCF1FF0F34DD5B
:10082000546800202EE000F1080C4FF0010808FA8F
:100830000CF3B1F800C00CEA03069E4221D18300FC
:100840004FF00F0C0CFA03F7BC4305FA03FC4CEA1B
:10085000040491F803C0BCF1280F05D100F1080C85
:1008600008FA0CF8C2F8148091F803C0BCF1480FE4
:1008700007D100F1080C4FF0010808FA0CF8C2F893
:100880001080401C0828CED35460BDE8F0814FF69C
:10089000FF710180022181700421C17070470246FE
:1008A000002093680B400BB1012000E0002070474E
:1008B0000146886880B2704702460020D3680B402A
:1008C0000BB1012000E0002070470146C86880B2EB
:1008D000704701617047416170470AB1016100E0F2
:1008E00041617047C16070474FF480320A438261B2
:1008F0008161826182698269704702460020434BB0
:1009000018684FF68073184040EA021008433F4BC6
:10091000186070473E49C8617047F0B50A46002329
:1009200000240021002500F00046B6F1004F02D15E
:10093000364EF16901E0354E7168C0F3034583B26C
:1009400000F44016B6F5401F08D121F070612F4E1B
:10095000766826F070662D4F7E6012E000F48016F7
:10096000B6F5801F06D1032606FA05F4A14341F02F
:10097000706106E0460D360103FA06F6B14341F018
:10098000706122B1460D360103FA06F6314300F0DC
:100990000046B6F1004F02D11C4EF16101E01B4E42
:1009A0007160F0BD30B500228B071C0F0F2303FAD6
:1009B00004F2164B08338C1053F824309343134C35
:1009C00008348D1044F8253023468C1053F8243019
:1009D0008C07240F00FA04F423430C4C08348D10C8
:1009E00044F8253030BD0A49DC310860704700000A
:1009F00000080140000C01400010014000140140BB
:100A000000180140001C014000200140000001408E
:100A100000002042DF48006840F00100DD49086026
:100A200008464068DC490840DA49486008460068E2
:100A3000DA490840D74908600846006820F4802059
:100A400008600846406820F4FE0048604FF41F002C
:100A500088607047CF49096821F48031CD4A116020
:100A60001146096821F480211160B0F5803F03D060
:100A7000B0F5802F0ED106E0C649096841F48031F7
:100A8000C44A116007E0C349096841F4A021C14A82
:100A9000116000E000BF00BF704710B501460022A2
:100AA000002300204A11012A02D1BA4C236806E033
:100AB000022A02D1B74C236A01E0B64C636A01F006
:100AC0001F02012494401C400CB1012000E00020D2
:100AD00010BD38B5002000900024002500BF312053
:100AE000FFF7DBFF05460098401C00900098B0F52A
:100AF000A06F01D0002DF2D03120FFF7CEFF08B15A
:100B0000012400E00024204638BD01460020A14A0F
:100B1000106820F0F80040EAC10010607047A0495A
:100B200008607047024600209A4B586820F47C10F9
:100B300042EA01031843974B58607047984908668A
:100B4000704701460020934A506820F00300084394
:100B5000506070478F48406800F00C0070470146B5
:100B600000208C4A506820F0F00008435060704725
:100B700001460020874A506820F4E0600843506036
:100B8000704701460020834A506820F4605040EAD4
:100B9000C1005060704729B17E4A527A02437D4BB2
:100BA0005A7204E07B4A527A82437A4B5A727047F7
:100BB0007B49D8310860704701460020754A50686B
:100BC00020F440400843506070470021714A2032B1
:100BD0001170704A82F82010012802D004280AD12E
:100BE00004E001216B4A2032117005E00521694AB9
:100BF0002032117000E000BF00BF704769490860F3
:100C000070476449096A0143624A11627047654945
:100C100044390860704730B50021002200240023C9
:100C20005C4D6D6805F00C0121B1042905D008293F
:100C300023D105E05C4D056022E05C4D05601FE0BE
:100C4000544D6D6805F47012524D6D6805F4803492
:100C5000022505EB92421CB9554D554305600BE04A
:100C60004C4D6D6805F400351DB1524D554305607E
:100C700002E04E4D5543056002E04B4D056000BF5C
:100C800000BF444D6D6805F0F00109094A4D6B5CE9
:100C90000568DD4045603F4D6D6805F4E061090A77
:100CA000454D6B5C4568DD4085603A4D6D6805F4E7
:100CB0006051C90A404D6B5C4568DD40C560354DEB
:100CC0006D6805F44041890B3C4D6B5CC568B5FB14
:100CD000F3F5056130BD29B12E4A526902432D4B0F
:100CE0005A6104E02B4A526982432A4B5A61704789
:100CF00029B1284A92690243264B9A6104E0254AA9
:100D000092698243234B9A61704729B1214AD26983
:100D10000243204BDA6104E01E4AD26982431D4B34
:100D2000DA61704729B11B4AD2680243194BDA6075
:100D300004E0184AD2688243164BDA60704729B142
:100D4000144A12690243134B1A6104E0114A1269F2
:100D50008243104B1A61704712494039086070474E
:100D60000F49C86470470B49C87170470948406A09
:100D700040F0807007494862704701460020054AEC
:100D800092680A400AB1012000E000207047014942
:100D900088727047001002400000FFF8FFFFF6FE67
:100DA000000042428004424200127A00001BB70059
:100DB00000093D00808D5B0014000020240000200D
:100DC00010B50446FB48844209D101218803FFF78E
:100DD000A9FF00214FF48040FFF7A4FF32E0F6485E
:100DE000844209D101214804FFF7A9FF00214FF4F3
:100DF0000030FFF7A4FF25E0F048844209D101212B
:100E00008804FFF79CFF00214FF48020FFF797FF35
:100E100018E0EB48844209D10121C804FFF78FFF95
:100E200000214FF40020FFF78AFF0BE0E5488442E1
:100E300008D101210805FFF782FF00214FF480103F
:100E4000FFF77DFF10BD2DE9F04786B005460E4641
:100E50000024A24600BFA1460027B08900B100BF10
:100E60002F462C8A4CF6FF700440F08804432C82F5
:100E7000AC894EF6F3100440B0883189084371897B
:100E800008430443AC81AC8A4FF6FF400440B0896C
:100E90000443AC8201A8FFF7BEFEC648874202D1D8
:100EA000DDF810A001E0DDF80CA0A88900F40040F6
:100EB00040B10AEBCA0000EB0A1031684900B0FBF0
:100EC000F1F807E00AEBCA0000EB0A10316889006C
:100ED000B0FBF1F86420B8FBF0F0040120096421B4
:100EE00001FB1089A88900F4004040B1322000EBDA
:100EF000C900B0FBF1F000F00700044308E0322025
:100F000000EB09106421B0FBF1F000F00F00044386
:100F10002C8106B0BDE8F0874FF416510160002126
:100F20008180C18001810C21418100218181704734
:100F300010B502460020108A4FF2FF0318400B88BC
:100F40004C8823438C882343CC8823431843108246
:100F500010BD0021018041808180C180704721B196
:100F6000828942F40052828104E082894DF6FF7347
:100F70001A4082817047F0B5034600240026002500
:100F8000002040F66A17B94200D100BF1846C1F3ED
:100F9000421401F01F06012707FA06F5012C01D1C2
:100FA0000C3004E0022C01D1103000E014301AB1F2
:100FB00007682F43076002E00768AF430760F0BD92
:100FC0001AB1838A0B43838202E0838A8B43838234
:100FD0007047028A4FF6F0731A400282028A0A436F
:100FE0000282704782894FF2FF731A4082818289A0
:100FF0000A438281704721B1828942F002028281D4
:1010000004E082894FF6FD731A4082817047028A9C
:101010004FF6DF731A400282028A0A430282704747
:1010200021B1028A42F48042028204E0028A4BF635
:10103000FF731A4002827047C1F308028280704732
:1010400001468888C0F308007047818941F001019A
:1010500081817047028BD2B20283028B42EA012265
:1010600002837047028B02F47F420283028B0A43A1
:101070000283704721B1828A42F02002828204E01A
:10108000828A4FF6DF731A408282704721B1828ACA
:1010900042F01002828204E0828A4FF6EF731A4017
:1010A0008282704721B1828A42F00802828204E083
:1010B000828A4FF6F7731A408282704721B1828983
:1010C00042F40042828103E08289C2F30E028281EF
:1010D000704721B1828A42F40062828204E0828AEF
:1010E0004FF2FF731A4082827047828A4FF6FB7379
:1010F0001A408282828A0A438282704721B1828AA0
:1011000042F00202828204E0828A4FF6FD731A40A6
:101110008282704702460020B1F5007F00D100BFF7
:1011200013880B400BB1012000E00020704701F450
:101130000072B2F5007F00D100BFCA430280704741
:1011400070B50246002400230025002040F66A16F0
:10115000B14200D100BFC1F3421501F01F030126C7
:1011600006FA03F3012D02D19689334006E0022DE1
:1011700002D1168A334001E0968A33400C120126D0
:1011800006FA04F41688344013B10CB1012000E0D3
:10119000002070BD10B50022002340F66A14A14261
:1011A00000D100BF0A1201249440A3B2DC430480A2
:1011B00010BD0000003801400044004000480040DD
:1011C000004C00400050004010B50446FE488442E8
:1011D00008D10121C014FFF7A5FD0021E014FFF79D
:1011E000A1FDC4E0B4F1804F08D101210846FFF70A
:1011F000A6FD00210120FFF7A2FDB8E0F3488442DC
:1012000008D101210220FFF79AFD00210220FFF7FB
:1012100096FDACE0EE48844208D101210420FFF79E
:101220008EFD00210420FFF78AFDA0E0E9488442FA
:1012300008D101210820FFF782FD00210820FFF7D7
:101240007EFD94E0E448844208D101211020FFF79C
:1012500076FD00211020FFF772FD88E0DF48844210
:1012600008D101212020FFF76AFD00212020FFF78F
:1012700066FD7CE0DA48844208D101214014FFF782
:1012800051FD00216014FFF74DFD70E0D548844208
:1012900009D10121C804FFF745FD00214FF40020CA
:1012A000FFF740FD63E0D048844209D101210805E1
:1012B000FFF738FD00214FF48010FFF733FD56E0B3
:1012C000CA48844209D101214805FFF72BFD0021BE
:1012D0004FF40010FFF726FD49E0C548844208D1CD
:1012E00001214020FFF72BFD00214020FFF727FDC3
:1012F0003DE0C048844208D101218020FFF71FFD56
:1013000000218020FFF71BFD31E0BB48844208D15B
:1013100001218015FFF713FD0021A015FFF70FFD38
:1013200025E0B648844209D101210804FFF7FAFC00
:1013300000214FF48030FFF7F5FC18E0B0488442FC
:1013400009D101214804FFF7EDFC00214FF40030E2
:10135000FFF7E8FC0BE0AB48844208D10121880488
:10136000FFF7E0FC00214FF48020FFF7DBFC10BD0D
:1013700000220288944B98420ED0994B98420BD091
:10138000B0F1804F08D0914B984205D0904B9842D5
:1013900002D0904B984204D14FF68F731A404B887D
:1013A0001A438D4B984207D08C4B984204D04FF68D
:1013B000FF431A40CB881A4302808B8883850B88B1
:1013C0000385814B98420BD0854B984208D08B4BBC
:1013D000984205D08A4B984202D08A4B984201D15C
:1013E0000B7A038601238382704770B500240022A4
:1013F0000023058C4FF6FE7635400584028C8388E9
:10140000048B4FF68F752C40B51E2C400D882C4355
:10141000751E2A400D892A434D882A436A4DA842E9
:101420000BD06F4DA84208D0744DA84205D0744D22
:10143000A84202D0734DA84213D14FF6F7752A4047
:101440004D892A434FF6FB752A408D882A434FF673
:10145000FF652B404FF6FF552B408D892B43CD89DF
:101460002B4383800483CD888586028470BD70B54C
:10147000002400220023058C4FF6EF7635400584CA
:10148000028C8388048B48F6FF752C404FF6FF458D
:101490002C400D884FF6FF7606EA05252C434FF6C3
:1014A000DF752A400D8906EA05152A434D8806EAAC
:1014B00005152A43444DA84202D0494DA8421DD1EA
:1014C0004FF67F752A404D894FF6FF7606EA0515DF
:1014D0002A434FF6BF752A408D8806EA05152A4330
:1014E0004FF6FF352B404FF2FF752B408D8906EAF2
:1014F00085052B43CD8906EA85052B43838004832C
:10150000CD880587028470BD70B5002400220023B9
:10151000058C4FF6FF6635400584028C8388848BEA
:101520004FF68F752C404FF6FC752C400D882C43E0
:101530004FF6FF552A400D894FF6FF7606EA05253E
:101540002A434D8806EA05252A431F4DA84202D0AA
:10155000234DA8421DD14FF2FF752A404D894FF609
:10156000FF7606EA05252A434FF6FF352A408D8887
:1015700006EA05252A434EF6FF752B404DF6FF750A
:101580002B408D8906EA05152B43CD8906EA051502
:101590002B4383808483CD888587028470BD70B59A
:1015A000002200230024058C4EF6FF76354005848A
:1015B000038C8488828B48F6FF752A404FF6FF45DE
:1015C0002A400D8820E00000002C0140000400406B
:1015D00000080040000C00400010004000140040D3
:1015E00000340140004C01400050014000540140D3
:1015F00000180040001C0040002000400040014056
:1016000000440140004801404FF6FF7606EA0525F8
:101610002A434DF6FF752B400D8906EA05352B430D
:101620004D8806EA05352B43FA4DA84202D0FA4D03
:10163000A84208D14BF6FF752C408D894FF6FF76F6
:1016400006EA85152C4384808283CD88A0F840501B
:10165000038470BD828B4FF2FF331A408283828BEA
:101660004FF6FF7303EA01231A4382837047F0B5F4
:101670000C461546002200210026078C4EF6FF7C02
:1016800007EA0C070784828B018C4FF6FF7707EA85
:10169000043640F6FF473A404FF6FF7707EA052742
:1016A0003A434FF6FF7707EA03373A43D94FB84238
:1016B0000ED0D94FB8420BD0B0F1804F08D0D74FE1
:1016C000B84205D0D64FB84202D0D64FB84206D164
:1016D0004DF6FF77394046F48057394305E047F629
:1016E000FF57394044F48057394382830184F0BD69
:1016F000828B4FF6F3731A408283828B0A43828374
:101700007047F0B50C461546002200210026078CD4
:101710004FF6FF6C07EA0C070784828B018C4FF6AB
:10172000FF7707EA04264FF60C773A404FF6FF772B
:1017300007EA03172F433A43B64FB8420ED0B64FCD
:10174000B8420BD0B0F1804F08D0B44FB84205D0AA
:10175000B34FB84202D0B34FB84206D14FF6FF574D
:10176000394046F48077394305E04FF2FF5739405E
:1017700044F48077394382830184F0BD028B4FF2B9
:10178000FF331A400283028B4FF6FF7303EA0123F3
:101790001A4302837047F0B50C461546002200211B
:1017A0000026078C4FF6EF7C07EA0C070784028BB4
:1017B000018C4FF6FF7707EA041640F6FF473A40E0
:1017C0004FF6FF7707EA03373A434FF6FF7707EA0A
:1017D00005273A438F4FB8420ED08F4FB8420BD0F7
:1017E000B0F1804F08D08D4FB84205D08C4FB84231
:1017F00002D08C4FB84206D14FF6DF77394046F021
:101800001007394305E04FF65F77394044F0100781
:10181000394302830184F0BD028B4FF6F3731A4003
:101820000283028B0A4302837047F0B50C461546CB
:1018300000220021068C4FF6FE773E400684028B84
:10184000018C4FF60C7632407E1C06EA03162E43BE
:101850003243704EB0420ED06F4EB0420BD0B0F15A
:10186000804F08D06D4EB04205D06D4EB04202D0D0
:101870006C4EB04206D14FF6FD76314044F0010681
:10188000314305E04FF6F576314044F0010631432F
:1018900002830184F0BD70B505460C465D48854263
:1018A0000ED05D4885420BD0B5F1804F08D05B4823
:1018B000854205D05A48854202D05A48854200D117
:1018C00000E000BF208850B92389A288618828469B
:1018D000FFF7ABFFE1882846FFF79EFF25E0208851
:1018E00004280AD12389A28861882846FFF753FF7C
:1018F000E1882846FFF742FF17E0208808280AD130
:101900002389A28861882846FFF7FBFEE1882846E4
:10191000FFF7EEFE09E02389A28861882846FFF7D9
:10192000A6FEE1882846FFF795FE70BD2DE9F0413F
:1019300005460C4600260127608808B9022600E00B
:101940000026A088012801D1022700E00127208875
:10195000A0B92389A28861882846FFF766FFE1883D
:101960002846FFF759FF23893A4631462846FFF7B4
:1019700012FFE1882846FFF701FF13E02389A288C0
:1019800061882846FFF707FFE1882846FFF7F6FE43
:1019900023893A4631462846FFF747FFE188284623
:1019A000FFF73AFFBDE8F0810A884B881A438B881D
:1019B0001A43CB881A430B891A434B891A438B89E4
:1019C0001A43A0F8442070474FF6FF718180002130
:1019D0000180C180418001727047002101804180F7
:1019E0008180C180018141818181C1817047002155
:1019F00001804180012181800021C18001817047E7
:101A00000021018041808180C180018141818181EB
:101A100070470000002C01400034014000040040E9
:101A200000080040000C004021B1028842F0010291
:101A3000028004E002884FF6FE731A40028070476D
:101A400031B1B0F8442042F40042A0F8442005E04F
:101A5000B0F84420C2F30E02A0F8442070471AB137
:101A600083890B43838102E083898B4383817047A1
:101A70008182704741EA0203A0F8483070471AB1EA
:101A800083890B43838102E083898B438381704781
:101A900001894FF6F8721140018170470A46002112
:101AA00001894FF68F73194011430181704730B59A
:101AB00004460D4629462046FFF7F0FF208940F0F6
:101AC0000700208130BD2DE9F04104460D46164641
:101AD0001F46602D06D13B46012231462046FFF7C6
:101AE0005AFE05E03B46012231462046FFF79DFEA7
:101AF00029462046FFF7D2FF208940F007002081C9
:101B0000BDE8F08130B50C4600210189C9B24FF61D
:101B1000FF7505EA0325154325432943018130BD9F
:101B20002DE9F04105460E461746984600244346E7
:101B30003A4631462846FFF7E5FF2C894FF6F87004
:101B4000044044F007044FF68F70044044F07004E2
:101B50002C81BDE8F081F0B504460D4616461F46BF
:101B60003B46324629462046FFF7CCFF208940F409
:101B700080402081F0BD0185828270470A460021A5
:101B800001884FF68F731940114301807047F0B5FB
:101B90000C4615461E460021002200230189028BB7
:101BA000038C4FF6F877394021434FF6FC473A4013
:101BB00040F201173A434FF6DD773B404FF6FF778F
:101BC00007EA06172F433B43018102830384F0BDDC
:101BD0000A460021018B4FF68F7319401143018390
:101BE00070470A460021018B48F6FF7319404FF6F3
:101BF000FF7303EA02231943018370470A46002159
:101C0000818B4FF68F7319401143818370470A46C9
:101C10000021818B48F6FF7319404FF6FF7303EAEA
:101C2000022319438183704721B1028842F0800268
:101C3000028004E002884FF67F731A4002807047EA
:101C400021B1828842F00402828004E082884FF64B
:101C5000FB731A408280704721B1828842F00802EB
:101C6000828004E082884FF6F7731A4082807047C2
:101C700021B1828842F00102828004E082884FF61E
:101C8000FE731A40828070470A460021018B4FF68E
:101C9000F77319401143018370470A460021018BF5
:101CA0004FF2FF7319404FF6FF7303EA0223194303
:101CB000018370470A460021818B4FF6F773194064
:101CC0001143818370470A460021818B4FF2FF73D5
:101CD00019404FF6FF7303EA0223194381837047CB
:101CE0000A460021018B4FF6FB7319401143018313
:101CF00070470A460021018B4FF6FF3319404FF61B
:101D0000FF7303EA02231943018370470A46002147
:101D1000818B4FF6FB7319401143818370470A464C
:101D20000021818B4FF6FF3319404FF6FF7303EA12
:101D300002231943818370470A460021018B4FF625
:101D40007F7319401143018370470A460021018BBC
:101D5000C1F30E014FF6FF7303EA02231943018317
:101D600070470A460021818B4FF67F73194011435B
:101D7000818370470A460021818BC1F30E014FF623
:101D8000FF7303EA02231943818370470A46002147
:101D9000018C4FF6FD7319401143018470470A46C8
:101DA0000021018C4FF6F7731940114301847047ED
:101DB0000A460021018C4FF6DF7319404FF6FF737E
:101DC00003EA02131943018470470A460021018C7B
:101DD0004FF67F7319404FF6FF7303EA021319435E
:101DE000018470470A460021018C4FF6FF531940C9
:101DF0004FF6FF7303EA02231943018470470A4632
:101E00000021018C4FF2FF7319404FF6FF7303EA74
:101E100002231943018470470A460021018C4DF6C4
:101E2000FF7319404FF6FF7303EA0233194301842D
:101E3000704730B5002301248C40A3B2048C9C432E
:101E40000484048C02FA01F5ADB22C43048430BD45
:101E500030B5002304248C40A3B2048C9C4304843A
:101E6000048C02FA01F5ADB22C43048430BD70B588
:101E70000346002000241846183001258D40ACB2DE
:101E80001D8CA5431D8409B1082909D100EB61000F
:101E9000056825F0700505600568154305600EE0CE
:101EA0000D1FC5F34E052844056825F4E04505607F
:101EB00005684FF6FF7606EA02263543056070BDD9
:101EC00021B1028842F00202028004E002884FF64B
:101ED000FD731A400280704721B1028842F004026B
:101EE000028004E002884FF6FB731A4002807047BC
:101EF00021B1828842F08002828004E082884FF61D
:101F00007F731A408280704702884FF6F7731A4039
:101F1000028002880A430280704782884FF68F73DE
:101F20001A40828082880A438280704702894FF675
:101F3000F8731A40028102890A43028170470289BC
:101F40004FF67F731A40028102890A43028170476B
:101F5000818470478185704781867047018770470B
:101F600081877047A0F84010704702884FF6FF4302
:101F70001A40028002880A43028070470146888E18
:101F800070470146088F70470146888F70470146A9
:101F9000B1F8400070470146888C70470146088DB3
:101FA000704702460020138A0B400BB1012000E06D
:101FB00000207047CA430282704730B502460020B5
:101FC00000230024158A05EA0103958905EA010426
:101FD00013B10CB1012000E0002030BDCA430282E1
:101FE0007047000010B50446FA48844208D1012128
:101FF0004015FEF797FE00216015FEF793FE17E0EF
:10200000F548844208D101210015FEF78BFE00211E
:102010002015FEF787FE0BE0F048844208D101212D
:10202000C803FEF77FFE00214FF40040FEF77AFE62
:1020300010BD30B50246002000235068E84C204017
:102040000D790C6844EA0524204350609068E54C03
:102050002040D1E902542C434D7944EA4504204301
:102060009060D06A20F470000C7C641EE4B22343BC
:1020700040EA0350D06230BD00210160017141711E
:102080008160C16001210174704721B1826842F012
:102090000102826003E0826822F0010282607047E0
:1020A00021B1826842F48072826003E0826822F487
:1020B00080728260704710B50023CBB21AB14468B9
:1020C0001C43446002E044689C43446010BD816846
:1020D00041F0080181607047014600208A6802F0E3
:1020E00008020AB1012000E000207047816841F039
:1020F000040181607047014600208A6802F00402F2
:102100000AB1012000E00020704721B1826842F44A
:10211000A002826003E0826822F4A002826070471D
:10212000014600208A6802F480020AB1012000E022
:102130000020704710B50A4600210023416821F4B1
:102140006041531E41EA4331416010BD21B14268F4
:1021500042F40062426003E0426822F4006242609E
:102160007047F0B504460D4600200021092D11DD11
:10217000E068A5F10A0606EB4607072606FA07F10E
:102180008843A5F10A0606EB460603FA06F1084362
:10219000E0600CE0206905EB4507072606FA07F129
:1021A000884305EB450603FA06F108432061072A38
:1021B0000FDA606B561E06EB86071F2606FA07F13C
:1021C0008843561E06EB860605FA06F1084360634F
:1021D00022E00D2A0FDA206BD61F06EB86071F269A
:1021E00006FA07F18843D61F06EB860605FA06F1C4
:1021F0000843206310E0E06AA2F10D0606EB8607B3
:102200001F2606FA07F18843A2F10D0606EB8606A3
:1022100005FA06F10843E062F0BD21B1826842F49C
:102220008012826003E0826822F48012826070472C
:102230000146C86C80B2704766484C3000687047F1
:1022400021B1426842F48062426003E0426822F4B5
:1022500080624260704721B1426842F4805242601D
:1022600003E0426822F48052426070470A4600212F
:10227000816821F4E04111438160704721B1826897
:1022800042F40042826003E0826822F400428260ED
:10229000704721B1826842F40212826003E08268D2
:1022A00022F4021282607047014600208A6802F41C
:1022B00000120AB1012000E000207047F0B504468A
:1022C0001546002000220026092911DDE068A1F151
:1022D0000A0707EB470C072707FA0CF29043A1F116
:1022E0000A0707EB470703FA07F21043E0600CE028
:1022F000206901EB410C072707FA0CF2904301EB30
:10230000410703FA07F210432061A06BC0F30156A6
:10231000EF1C06F1010CA7EB0C0707EB870C1F273E
:1023200007FA0CF29043EF1C06F1010CA7EB0C0727
:1023300007EB870701FA07F21043A063F0BD10B561
:102340000A4600210023816B21F44011531E41EA0B
:102350000351816310BD08B5002300930090009BDA
:102360000B440093009B1A6008BD08B5024600208C
:102370000090009201F12800009B18440090009802
:10238000006880B208BD0A4600214168164B19401A
:102390001143416070474162826270470A460021E2
:1023A000416821F01F0111434160704740B1094964
:1023B0000831096841F40001064A0832116007E05B
:1023C00004490831096821F40001024A0832116009
:1023D000704700000024014000280140003C0140FB
:1023E000FFFEF0FFFDF7F1FFFFFD3FFF024600207B
:1023F00013680B400BB1012000E000207047CA4376
:102400000260704770B502460020002300240B12C2
:102410005568CEB205EA060415681D4015B10CB129
:10242000012000E0002070BD00220A12D3430360A7
:102430007047000001684FF6FE72114001600021F4
:10244000016041608160C1608D49884208D18C493A
:102450000839496841F00F01894A083A51608AE019
:1024600087491431884208D185490839496841F0C3
:10247000F001834A083A51607DE081492831884261
:1024800008D17F490839496841F470617C4A083AAB
:10249000516070E07A493C31884208D17849083966
:1024A000496841F47041764A083A516063E07449E2
:1024B0005031884208D172490839496841F4702185
:1024C0006F4A083A516056E06D496431884208D13C
:1024D0006B490839496841F47001694A083A51600A
:1024E00049E067497831884208D165490839496827
:1024F00041F07061624A083A51603CE061498842AB
:1025000006D1011F096841F00F01021F116032E07E
:102510005C491431884208D15A49091F096841F0C1
:10252000F001584A121F116025E0564928318842AF
:1025300008D15449091F096841F47061514A121FBA
:10254000116018E04F493C31884208D14D49091FBC
:10255000096841F470414B4A121F11600BE0494970
:102560005031884207D14749091F096841F4702159
:10257000444A121F1160704710B50022026847F6E6
:10258000F0739A430C6A8B6823430C6923434C69AC
:1025900023438C692343CC6923434C6A23438C6ACD
:1025A00023431A430260CB6843600B6883604B6827
:1025B000C36010BD0021016041608160C1600161A4
:1025C00041618161C161016241628162704721B1F3
:1025D000026842F00102026004E002684FF6FE73F6
:1025E0001A40026070471AB103680B43036002E0AF
:1025F00003688B4303607047416070470146486839
:1026000080B2704701460020002201F080531BB1C8
:102610001C4B083B1A6802E0194B083B1A6802EA97
:1026200001030BB1012000E00020704700F0805151
:1026300019B11449091F086002E0114908394860BE
:10264000704701460020002201F080531BB10D4B62
:10265000083B1A6802E00A4B083B1A6802EA0103C9
:102660000BB1012000E00020704700F0805119B14B
:102670000449091F086002E00149083948607047B1
:10268000080002400804024010B504462246082112
:102690001148FEF722F91148047010BD08B5012158
:1026A0000820FEF725FB01210846FEF721FB01214A
:1026B0000B48FEF732F910208DF803000820ADF822
:1026C000000003208DF8020069460348FEF754F825
:1026D0000020FFF7D9FF08BD000C014028000020B2
:1026E000000230004FF0E020006920F004004FF0BD
:1026F000E02108610920364908700846007800EB9F
:102700004001C1EBC0104FF6FF7101EAC000314932
:1027100008807047002120F07F402D4A1278424304
:102720004FF0E0235A6100229A6101221A6100BF32
:102730004FF0E022116901F001021AB101F4803278
:10274000002AF5D000224FF0E0231A619A61704709
:10275000002100B9704720F07F401E4A1288424392
:102760004FF0E0235A6100229A6101221A6100BFF2
:102770004FF0E022116901F001021AB101F4803238
:10278000002AF5D000224FF0E0231A619A6100BFC1
:10279000E0E770B50446002600254FF4FA7094FB7C
:1027A000F0F0C6B24FF4FA7094FBF0F100FB114068
:1027B00085B205E04FF4FA70FFF7CAFF701EC6B28B
:1027C000002EF7D115B12846FFF7C2FF70BD0000FB
:1027D0002A0000202C00002010B586B004460121FC
:1027E0000420FEF785FA01218803FEF781FA1820FC
:1027F0008DF817004FF40070ADF8140003208DF829
:10280000160005A96B48FDF7B7FF04208DF81700E7
:102810000002ADF8140003208DF8160005A96548E4
:10282000FDF7AAFF01940020ADF810000C20ADF8D0
:102830000E000020ADF80C00ADF80A00ADF808005D
:1028400001A95D48FEF7FFFA01215B48FEF787FB0F
:10285000012240F225515848FEF78DFB25208DF8C6
:10286000000001208DF8030000208DF801000220F7
:102870008DF802006846FDF7B6FE06B010BD10B533
:1028800086B0044601210420FEF732FA01214804F3
:10289000FEF73BFA18208DF817000420ADF814005D
:1028A00003208DF8160005A94248FDF765FF0420B6
:1028B0008DF817000820ADF8140003208DF81600DD
:1028C00005A93C48FDF758FF01940020ADF8100021
:1028D0000C20ADF80E000020ADF80C00ADF80A0099
:1028E000ADF8080001A93548FEF7ADFA01213348DB
:1028F000FEF735FB012240F225513048FEF73BFB45
:1029000026208DF8000001208DF8030000208DF8AE
:1029100001008DF802006846FDF765FE06B010BDA7
:102920002DE9F04107460C46154600260DE014F847
:10293000011B3846FEF780FB00BF40213846FEF7FA
:10294000E9FB0028F9D0701C86B2AE42EFDBBDE88F
:10295000F0810FB430B5CBB0054601AC50A8009063
:102960004FF4947101A8009B4F9A02F017F90020D0
:1029700000900BE014F8011B2846FEF75DFB00BF3A
:1029800040212846FEF7C6FB0028F9D02078002811
:10299000F0D14BB030BC5DF814FB10B540F22551BE
:1029A0000548FEF7CDFB18B120210348FEF7BFFB19
:1029B00010BD000000080140003801400044004004
:1029C00070B502460C46FF25FF2309E012F8010B03
:1029D00080EA05010648405C80EA03050548435C3F
:1029E0002000A4F10106B4B2F0D143EA052070BD85
:1029F000346F0008347000081FB501212020FEF755
:102A000084F92820ADF8080041F61F40ADF8040015
:102A10000020ADF80A00ADF8060001A9FD48FEF758
:102A2000A7FC01221146FB48FFF719F837208DF863
:102A3000000002208DF8010003208DF80200012023
:102A40008DF803006846FDF7CEFD1FBD10B586B0BA
:102A5000044601210920FEF74BF901218804FEF705
:102A600054F94FF48060ADF8140018208DF8170069
:102A700003208DF8160005A9E748FDF77DFE4FF409
:102A80008061E548FDF725FF4FF40060ADF81400C4
:102A900004208DF8170005A9DF48FDF76DFEDF481B
:102AA000FEF78EF901940020ADF81000ADF8080093
:102AB000ADF80A000C20ADF80E000020ADF80C00B7
:102AC00001A9D648FEF7BFF940F22551D348FEF7D9
:102AD00061FB012240F22551D048FEF74CFA272035
:102AE0008DF8000002208DF801008DF80200012011
:102AF0008DF803006846FDF776FD0121C748FEF713
:102B00002EFAFFF779FF06B010BD70B540F22551DF
:102B1000C248FEF715FB28B30721C048FEF7FAFAB2
:102B200008B1012400E00024BC48FEF789FAC5B2D0
:102B3000BB480088642815DAA4B9BA48B84909889E
:102B40004554B7480088401CB54908800121B14868
:102B5000FFF744FA0021AF48FFF7FAF90121AD4829
:102B6000FEF762FF70BD10B50121AA48FFF725FAF4
:102B700050B10121A748FFF731FA0021A548FEF71F
:102B800053FF0120A849087010BD70B504460D46DA
:102B90000BE000BF8021A148FEF7BCFA0028F9D065
:102BA00014F8011B9D48FEF747FA2800A5F1010122
:102BB000CDB2EED100BF40219848FEF7ABFA002815
:102BC000F9D001209949087070BD2DE9F041064601
:102BD0000F4614461D4696480670477020129449C9
:102BE0008870CC70281208714D7106219048FFF74B
:102BF000E7FE80464FEA18208D49887181F80780EA
:102C000008218B48FFF7C1FFBDE8F0812DE9F041B5
:102C100005460C4616461F46032C06D13B46324657
:102C200021462846FFF7D1FF00BF00BFBDE8F08175
:102C30007C480078012802D0022850D13DE0794834
:102C400080780E2827D17748C0787A49087075486F
:102C50000079487073484079887072488079C870EC
:102C60007048C079744908706E48007A48706D48A1
:102C7000407A88706B48807AC8706A48C07A6F4919
:102C800008706848007B48706648407B88706548DB
:102C9000807BC87010E06348807804280CD16148BC
:102CA000C078674908705F48007948705D4840798E
:102CB00088705C488079C87011E05A48807808288C
:102CC0000CD15848C0795F4908705648007A48705E
:102CD0005448407A88705348807AC87000BF00BF5B
:102CE000002052490870704770B54F48007801289D
:102CF0007ED14C480078012824D04A480078022828
:102D000020D04848007803281CD046480078042882
:102D100018D044480078052814D042480078062886
:102D200010D040480078072801D1012000E00020A1
:102D30003C490978082901D1012100E0002108431C
:102D4000002838D037484078012817D035484078D7
:102D5000022813D03348407803280FD031484078F8
:102D600005280BD02F484078062807D02D484078FA
:102D70000F2803D02B484078102821D128480088FC
:102D8000801E81B22748FFF71BFE044624480088B6
:102D9000401E2449095C22480088801E214A105C9C
:102DA00041EA0025AC4207D110464078032802D101
:102DB000FFF73EFF00BF5DE00E202349087059E099
:102DC00018484078812819D016484078822815D0B4
:102DD00014484078832811D01248407885280DD0B7
:102DE00010484078862809D00E4840788F2800E0A7
:102DF00047E003D00B48407890283BD109488078C1
:102E0000012823D0022825D0032827D004282DD13B
:102E100028E0000000140040000C01400048004081
:102E20003000002068000020320000203F00002019
:102E30003300002044000020480000204C00002007
:102E40005000002054000020400000200B200D49BD
:102E500008700BE00C200B49087007E00D200949B1
:102E6000087003E00E200749087000BF00BF002073
:102E70000549087000200549087005490880024985
:102E8000087070BD400000203F000020320000208C
:102E90003000002008B501211020FDF729FF022095
:102EA000ADF8000000208DF8030069466248FDF788
:102EB00063FC01211020FDF71BFF0820ADF8000086
:102EC00000208DF8030069465B48FDF755FC08BDFE
:102ED00000B591B001210846FDF7FDFE0121480231
:102EE000FDF706FF01218802FDF702FF5348FFF7B7
:102EF000A1FA5348069053480790002008900120FB
:102F0000099000200A9080200B9080000C90800097
:102F10000D9020200E9000020F900020109006A926
:102F20004648FFF729FB01214448FFF750FB4FF4C7
:102F3000C020019001208DF808008DF809004FF4A1
:102F4000602003900020049001208DF8140001A956
:102F50003B484C38FFF76DF84FF44040FDF72CFE2E
:102F6000072301220B2136484C38FFF7FAF80121DC
:102F700033484C38FFF794F84FF4C02001900120FB
:102F80008DF808008DF809004FF4602003900020B0
:102F9000049001208DF8140001A92B48FFF749F88F
:102FA0004FF44040FDF708FE072301220D2126487B
:102FB000FFF7D7F801212448FFF72FF90121204816
:102FC0004C38FFF762F81E484C38FFF780F800BF16
:102FD0001B484C38FFF780F80028F9D118484C38C6
:102FE000FFF784F800BF16484C38FFF784F8002834
:102FF000F9D101211448FFF748F81348FFF767F8A3
:1030000000BF1148FFF768F80028FAD10E48FFF713
:103010006DF800BF0C48FFF76EF80028FAD10121C7
:1030200007484C38FFF771F811B000BD10B5FFF735
:1030300031FFFFF74DFF10BD0010014008000240B6
:103040004C240140580000200028014010B54FF4E6
:10305000A060FDF7C3FAFFF745FB4FF4E130FFF73F
:10306000BBFB4FF4E130FFF70AFC4FF41650FFF7BB
:10307000EDFCFFF713FBFFF7D9FF4EA15248FFF716
:1030800068FC10BD88B04FF0000AD346FFF7DEFFA2
:1030900001F076FB03E04FF4FA70FFF759FB00F004
:1030A000CBF80028F7D10120FFF7EEFAFA20FFF75E
:1030B0004FFB0020FFF7E8FA7BE00AF1010080B245
:1030C0008246502190FBF1F201FB1200052823D12A
:1030D00007234FF4185203210120FFF797FD6420C6
:1030E000FFF736FBFFF700FE02234FF49052032157
:1030F0000120FFF78BFD6420FFF72AFBFFF7F4FDAB
:1031000004234FF4185203210220FFF77FFD6420AF
:10311000FFF71EFBFFF7E8FD0AF1010080B28246CF
:10312000B0F5167F38DB2949086803F0B5FD284A59
:10313000284BCDE9060103F0C5FC8046264A274B03
:1031400003F0C2FB04460D4622462B46244825497F
:1031500003F0BAFB06460F46FFF7C6FD2249086892
:1031600003F09AFD804689462049086803F094FDE3
:1031700002460B468DE8F003CDE906011CA112487A
:10318000FFF7E7FB27A11048FFF7E3FB00F016FB72
:103190004FF0000A01F078FA002001F0D0FA8346DF
:1031A000BBF1000F02D0584600F04AFB0A20FFF79F
:1031B000CFFA82E720486172647761726520696E98
:1031C0006974204F4B0D0A00003801404800002070
:1031D0001E26D016C6AC0A40AD68D6C696EDEF3FA7
:1031E00097395D16139BD93F5400002044000020FE
:1031F0000D0A54656D703A252E326609434F443AE4
:10320000252E326609544F433A252E3266094E5414
:10321000553A252E32660D0A5453533A252E3266FE
:103220000D0A00004F6E654E65745F53656E644411
:103230006174610D0A00000030B58BB0002007906A
:10324000089009900A900125D1A0D4A3DBA2DDA1AA
:103250000090E848FFF77DFB07A800210291039149
:10326000CDE9041000912B02C9A20191CBA1D3A0FA
:1032700000F05FFC002842D1089A91B2079801F053
:1032800047FAFA2001F05BFA0446002C33D02046BE
:1032900000F01AFC02282ED1204600F0AFFD0628CF
:1032A00023D2DFE800F003090E13181DD2A1D14884
:1032B000FFF74FFB00251DE0D4A1CE48FFF749FBE7
:1032C00018E0D9A1CB48FFF744FB13E0DFA1C948C0
:1032D000FFF73FFB0EE0E5A1C648FFF73AFB09E028
:1032E000EBA1C448FFF735FB04E0F4A1C148FFF7A8
:1032F00030FB00BF00BF07A800F09EFB03E0F6A173
:10330000BC48FFF726FB28460BB030BD2DE9F14F36
:10331000A4B0002023902290F8480068000C23906D
:10332000F648006880B22290229803F0A3FD8146FF
:103330004FF08B4103F0DCFC044603F0ADFC074684
:103340004FF06632EE4B03F0BFFA054603F0E2F9A8
:10335000EC494860239803F08DFD81464FF08B4186
:1033600003F0C6FC044603F097FC07464FF06632B4
:10337000E34B03F0A9FA054603F0CCF9E1490860F4
:10338000486803F089FC0646DF4AE04B03F09CFAEC
:103390000446DF4ADF4B03F0EFF9CDE91001D949CC
:1033A000086803F079FC0446DB4ADC4B03F08CFA36
:1033B000CDE90801D349086803F06EFC04460D46C8
:1033C000D049086803F068FC8046D54AD54B03F025
:1033D0007BFA064622462B4603F076FACDE9040135
:1033E000C849086803F058FC82468B46C5490868FE
:1033F00003F052FC04460D46C249086803F04CFC39
:103400008046C94AC94B03F05FFA064622462B465E
:1034100003F05AFA52465B46CDE9000103F054FA34
:10342000CDE90201DDE9042303F04CFBCDE90601FF
:10343000DDE9082303F0A0F90022BD4BCDE90A0124
:1034400003F042FACDE90E01BA49086803F024FC02
:103450000446B94AB94B03F037FACDE90C014021D3
:1034600012A801F0BCFDB6A1249801F002FD402194
:1034700012A801F0B4FDB349086803F00DFC04463E
:1034800022460B46B0A112A801F0A2FB12A9249873
:1034900001F032FD402112A801F0A1FDAFA112A858
:1034A000DDE9102301F094FB12A9249801F024FD1A
:1034B000402112A801F093FDABA112A8DDE90E2373
:1034C00001F086FB12A9249801F016FD402112A8F4
:1034D00001F085FD9749086803F0DEFB04462246AB
:1034E0000B46A4A112A801F073FB12A9249801F0C5
:1034F00003FD402112A801F072FDA149086803F004
:10350000CBFB044622460B469EA112A801F060FBAD
:1035100012A9249801F0F0FC402112A801F05FFDEF
:103520009B49086803F0B8FB044622460B4699A164
:1035300012A801F04DFB12A9249801F0DDFC4021F6
:1035400012A801F04CFD96A112A8DDE90C2301F0B0
:103550003FFB12A9249801F0CFFC402112A801F0F2
:103560003EFD9249086803F097FB044622460B464D
:103570008FA112A801F02CFB12A9249801F0BCFC29
:10358000249801F09AFCC0B225B0BDE8F08F00008D
:1035900035303231323931383600000069537737EF
:1035A0006969415A4358737945574B6E54706B693A
:1035B0004D6865626B4B733D00000000313832335B
:1035C000373000004F6E654E65745F4465764C6918
:1035D0006E6B0D0A50524F49443A2025732C094115
:1035E0005549463A2025732C0944455649443A2505
:1035F000730D0A0000380140546970733A09C1AC78
:10360000BDD3B3C9B9A60D0A000000005741524E00
:103610003A09C1ACBDD3CAA7B0DCA3BAD0ADD2E9D8
:10362000B4EDCEF30D0A00005741524E3A09C1AC39
:10363000BDD3CAA7B0DCA3BAB7C7B7A8B5C4636C7B
:1036400069656E7469640D0A000000005741524EAE
:103650003A09C1ACBDD3CAA7B0DCA3BAB7FECEF15C
:10366000C6F7CAA7B0DC0D0A000000005741524E51
:103670003A09C1ACBDD3CAA7B0DCA3BAD3C3BBA7B8
:10368000C3FBBBF2C3DCC2EBB4EDCEF30D0A00000A
:103690005741524E3A09C1ACBDD3CAA7B0DCA3BA58
:1036A000B7C7B7A8C1B4BDD328B1C8C8E7746F6B9A
:1036B000656EB7C7B7A8290D0A0000004552523AF7
:1036C00009C1ACBDD3CAA7B0DCA3BACEB4D6AAB4E4
:1036D000EDCEF30D0A0000005741524E3A094D510C
:1036E00054545F5061636B6574436F6E6E656374B1
:1036F000204661696C65640D0A00000058000020D6
:1037000066660A405C00002007CE1951DADB17C05C
:10371000E17A14AE4741344085EB51B81ECB8A4064
:10372000EC51B81E85FB6F403D0AD7A3702D634056
:103730000000F03F480000209A9999999999D93F43
:103740002C3B00004400002054656D707265747558
:1037500072652C252E32663B0000000050482C2557
:103760002E32663B000000005444532C252E326656
:103770003B000000436F642C252E32663B000000A6
:103780004C000020546F632C252E32663B00000055
:10379000500000204E54552C252E32663B00000070
:1037A000426F642C252E32663B000000540000203E
:1037B0005473732C252E32663B00000030B5C5B023
:1037C000002041904290439044900024002558A14D
:1037D0005F48FFF7BEF84FF4807101A801F0FFFBCE
:1037E00001A8FFF793FD0446002C27D041A805232C
:1037F000002221460090AFF2682000F0ADFBC8B96E
:1038000008E001A8415D429A501C429041988154C1
:10381000681C05B2A542F4DB429A91B2419800F0CF
:1038200077FF4CA14A48429AFFF793F841A800F06D
:1038300003F903E04BA14648FFF78BF845B030BDD4
:103840002DE9F0418CB007460020089009900A90BD
:103850000B900790069005900025002600248046D6
:10386000384600F031F90546042D25D00F2D2CD116
:1038700005AB07AA06A9384600F09AFB0646D6B95A
:10388000BDF8140000903FA13148DDE90623FFF7A1
:1038900060F808AADDE9060100F0D0FB58B942A1A2
:1038A0002B48FFF756F8099A91B2089800F030FFBC
:1038B00008A800F0C1F80BE0384600F021FE18B966
:1038C0003FA12348FFF745F802E04FF0FF3600BF65
:1038D00000BF00F0D9FE701C10B90CB0BDE8F0813B
:1038E0007D21079801F097FA0446A4B1701C90B1AD
:1038F000641C06E014F8012B404608F1010802A9F7
:103900000A542078302802DB20783928F2DD02A81A
:1039100001F074FA80460F2D01D0032D05D10698D1
:1039200001F015F9079801F012F900BFD5E7000082
:10393000546970733A094F6E654E65745F53656ED6
:1039400064446174612D4D5154540D0A000000000F
:103950000038014053656E64202564204279746507
:10396000730D0A005741524E3A094D5154545F4E5F
:103970006577427566666572204661696C65640D9F
:103980000A000000636D6469643A2025732C20727C
:1039900065713A2025732C207265715F6C656E3AF3
:1039A0002025640D0A000000546970733A095365BC
:1039B0006E6420436D64526573700D0A0000000050
:1039C000546970733A094D515454205075626C69B2
:1039D00073682053656E64204F4B0D0A0000000091
:1039E00070B504460E460025206898B90120207362
:1039F000304601F07DF820602068E0B10020606072
:103A0000A66003E00020216848556D1CA068A8420C
:103A1000F8D810E00220207303E000202168485508
:103A20006D1CA068A842F8D800206060A068B04271
:103A300001D20020206070BD10B50446207B012813
:103A400002D1206801F083F8002020606060A0604F
:103A5000207310BD0246002301230DE002F07F0019
:103A60000870D2092AB1087840F080000870491C1B
:103A700001E0184670475B1C042BEFDD4FF0FF3070
:103A8000F8E7F0B504460D462646012300201060F5
:103A9000002114E0775C07F07F07106807FB030044
:103AA0001060705C00F0800008B9481CF0BDDB01BC
:103AB000B3F5001F02D36FF00100F7E7491CA942DC
:103AC000E8DB4FF0FF30F1E7F8B50446FF27207838
:103AD0000511012D01DB0E2D01DD3846F8BD032D4A
:103AE00024D1002000906A460421601CFFF7C9FF22
:103AF0002044461C0098022803D3207800F00100DF
:103B000008B1FF20EAE77078317840EA0120801C94
:103B10000099884201D9FF20E0E7FEA1B01C01F026
:103B200096F908B10F2700E0032700E02F4638463A
:103B3000D4E72DE9FF4F83B082468B469146159C12
:103B40000025002002900F270190484601F0B5F9AA
:103B50000FFA80F8B9F1000F03D1012007B0BDE8DA
:103B6000F08F08F10200384487B2109808B145F090
:103B70000205129878B145F00405129801F09DF9FC
:103B8000C0B20290139801F098F901460298001D06
:103B90000844384487B2119820B1012804D0022883
:103BA00008D104E000BF07E045F00C0504E045F053
:103BB000140501E00220D1E700BF149808B145F0D8
:103BC0002405BAF1000F02D0BBF1000F01D1032090
:103BD000C4E745F0C005504601F06FF90646584667
:103BE00001F06BF93044001D384487B23946204655
:103BF000FFF7F6FE206808B90420AFE739462068D1
:103C000001F0CBF910216268501C6060206881547B
:103C1000D4E90023D118781FFFF71CFF00B20190F0
:103C20000198002804DA2046FFF706FF052095E7F3
:103C3000616801980844606000216268501C6060FF
:103C40002068815404216268501C6060206881549F
:103C50004D216268501C6060206881545121626867
:103C6000501C60602068815454216268501C606060
:103C7000206881546268501C60602068815404216F
:103C80006268501C6060206881546168481C6060F4
:103C9000206845540698010A6268501C60602068DC
:103CA00081540698C1B26268501C606020688154DB
:103CB000C8F307216268501C606020688154626804
:103CC000501C6060206800F80280D4E90012881857
:103CD0004246494601F0A9F860684044606005F03A
:103CE0000400B8B30026139808B98CA0139012985A
:103CF00001F0E3F886B2310A6268501C6060206807
:103D000081546268501C606020688654D4E90012B7
:103D100088183246129901F088F860683044606073
:103D2000139801F0CAF886B2310A6268501C6060CC
:103D3000206881546268501C606020688654D4E911
:103D4000001288183246139901F06FF86068304409
:103D5000606000BF05F08000C8B1504601F0ADF8CA
:103D600086B2310A6268501C6060206881546268C3
:103D7000501C606020688654D4E9001288183246CE
:103D8000514601F052F860683044606000BF05F0B1
:103D90004000C8B1584601F090F886B2310A626816
:103DA000501C6060206881546268501C606020680C
:103DB0008654D4E9001288183246594601F035F885
:103DC00060683044606000BF0020C7E610B504465C
:103DD00002212046FFF704FE206808B9012010BD2B
:103DE000E0216268501C6060206881540021626894
:103DF000501C6060206881540020F0E7014648783C
:103E0000022801D001207047887810B188780128F5
:103E100001D1C878F7E7FF20F5E72DE9F84F804694
:103E2000894693469A460D9C002700250020009065
:103E30000026B8F1000F02D10120BDE8F88F00255F
:103E40000AE019F80500232803D019F805002B28EB
:103E500001D10220F1E76D1C19F805000028F0D10E
:103E600046F030060B9808B146F0010605EB0A0053
:103E7000871C0A9820B1012804D002280AD105E045
:103E800000BF09E046F00206BF1C05E046F004064C
:103E9000BF1C01E00320D0E700BFF91C2046FFF75C
:103EA0009FFD206808B90420C7E7F91C206801F0CD
:103EB00074F86168481C606020684654D4E90002C8
:103EC00081183846FFF7C6FD00900098002804DAF4
:103ED0002046FFF7B1FD0520AFE761680098084470
:103EE0006060C5F307216268501C606020688154DF
:103EF0006268501C606020688554D4E900128818FC
:103F00002A46494600F091FF6068284460600A989C
:103F100098B105E0246372657100000000000000A4
:103F20004FEA18216268501C606020688154626802
:103F3000501C6060206800F80280BBF1000F09D0BF
:103F4000D4E9001288185246594600F06EFF6068A6
:103F500050446060002070E72DE9FF4107460D46A0
:103F600090461E460A9C01200021CDE90001EB1C71
:103F70000A46F9A1CDE902040A20FFF74EFF88B9ED
:103F80006168481C606020684654C5F30721626878
:103F9000501C6060206881546268501C606020681A
:103FA000855403E0012004B0BDE8F0810020FAE769
:103FB0002DE9F84380460C4615461E462F2108F190
:103FC000060000F028FF07460020009017B90120E6
:103FD000BDE8F8837F1C6A46042108F10100FFF761
:103FE00050FD252000F084FD2060206808B90220E3
:103FF000EEE72521206800F0D0FF24223946206812
:1040000000F086FF243700982C3830803188481C17
:1040100000F06EFD2860286820B9206800F097FD48
:104020000320D5E73288511C286800F0B6FF32889B
:104030003946286800F06CFF0020C9E72DE9FF5FD2
:1040400007460D469046384600F037FF86B22846B0
:1040500000F033FF1FFA80FA4FF00009B01D00F0A6
:1040600047FD04461CB9012004B0BDE8F09FB11D16
:10407000204600F092FFB9A0016821608088A080EE
:1040800032463946204600F0D0FE284600F015FFA3
:1040900083460120002100915B462A46CDE90208B3
:1040A000019121460A20FFF7B8FE10B94FF0000930
:1040B00001E04FF00109204600F049FD4846D3E7F2
:1040C0002DE9FF5F8046174699460E9C0026B246B2
:1040D000B3460025B8F1000F03D1012004B0BDE8BC
:1040E000F09F0BE057F8250008B90220F6E757F8D3
:1040F000250000F0E2FE0644681CC5B24D45F1DB28
:1041000009EB4900801C00EB060A0AF10501204674
:10411000FFF766FC206808B90320DFE782216268A8
:10412000501C606020688154D4E900028118504618
:10413000FFF790FC0FFA80FBBBF1000F04DA20467A
:10414000FFF77AFC0420C9E76068584460604FEAD2
:1041500018216268501C6060206881546268501C9D
:104160006060206800F80280002524E057F82500F0
:1041700000F0A3FE0646C6F307216268501C60608B
:10418000206881546268501C606020688654D4E9BD
:104190000023D01857F82510324600F046FE60681C
:1041A000304460600198C1B26268501C6060206851
:1041B0008154681CC5B24D45D8DB00208EE701460E
:1041C000FF208A78A2B9CA78142A11D10A7932B1AB
:1041D000012A05D0022A04D0802A06D103E000BFBC
:1041E00000BF002003E0012001E0022000BF00BF6B
:1041F00070472DE9F05F80460F4691461C46002629
:10420000B246B3460025B8F1000F02D10120BDE847
:10421000F09F0BE057F8250008B90220F7E757F8A0
:10422000250000F04AFE0644681CC5B24D45F1DB8E
:10423000022000EB490000EB060A0AF105012046C6
:10424000FFF7CEFB206808B90320E0E7A2216268EF
:10425000501C606020688154D4E9000281185046E7
:10426000FFF7F8FB0FFA80FBBBF1000F04DA2046E2
:10427000FFF7E2FB0420CAE76068584460604FEA39
:1042800018216268501C6060206881546268501C6C
:104290006060206800F8028000251DE057F82500C6
:1042A00000F00BFE0646C6F307216268501C6060F2
:1042B000206881546268501C606020688654D4E98C
:1042C0000023D01857F82510324600F0AEFD606884
:1042D00030446060681CC5B24D45DFDB002096E7C6
:1042E000014601208A781AB9CA781E2A00D1002016
:1042F00070472DE9FC5F81460D4614461E46DDE9F8
:104300000C8B99F8000000F00F0A002001900AF0D1
:1043100008000090CAF341008BF8000001AA0421B4
:1043200009F10100FFF7ADFB4844471C0198022842
:1043300002D30AF0010010B1FF20BDE8FC9F78789D
:10434000397840EA012020802088801C0199884229
:1043500008D9FF20F1E70000246470002463727321
:10436000702F0000AFF25441B81C00F070FD08B18E
:104370000F20E2E79BF8000020B101283DD0022881
:1043800077D13BE0009808B1FF20D6E72188481C90
:1043900000F0AEFB2860286808B9FF20CDE722882E
:1043A000511C286800F0F9FD2288B91C286800F02B
:1043B000AFFD0198801E2188401AA8F80000B8F8C7
:1043C0000010481C00F094FB3060306820B9286869
:1043D00000F0BDFBFF20B0E7B8F80020511C3068AA
:1043E00000F0DBFDB8F80020B4F800C0BB1C0CEBFB
:1043F0000301306800F08CFD4FE000BF2088801C76
:104400000199884201D9FF2097E72088C01C395CB8
:104410002088801C385C41EA00210E9801800E98AB
:1044200008B9FF2089E72188481C00F061FB28605B
:10443000286808B9FF2080E72288511C286800F00E
:10444000ACFD2288B91C286800F062FD0198001FAD
:104450002188401AA8F80000B8F80010481C00F0A5
:1044600047FB3060306828B9286800F070FBFF20F7
:1044700063E710E0B8F80020511C306800F08DFDB3
:10448000B8F80020B4F800C03B1D0CEB0301306805
:1044900000F03EFD01E0FF204FE700BF2B21284642
:1044A00000F0B9FC20B92321284600F0B4FC08B183
:1044B000FF2042E7002040E770B505460C46042186
:1044C0002046FFF78DFA206808B9012070BD402111
:1044D0006268501C60602068815402216268501C30
:1044E00060602068815429126268501C60602068F6
:1044F00081546268501C6060206885540020E5E7A4
:1045000001464878022801D001207047887820B9F8
:10451000C8780A2801D10020F7E70120F5E770B537
:1045200005460C4604212046FFF75AFA206808B9D0
:10453000012070BD50216268501C60602068815469
:1045400002216268501C60602068815429126268F0
:10455000501C6060206881546268501C6060206854
:1045600085540020E5E701464878022801D0012063
:104570007047887820B9C8780A2801D10020F7E769
:104580000120F5E770B505460C4604212046FFF7EB
:1045900027FA206808B9012070BD62216268501CAA
:1045A00060602068815402216268501C606020684D
:1045B000815429126268501C6060206881546268CE
:1045C000501C6060206885540020E5E70246507862
:1045D000022801D0012070479078B0EB112F05D14F
:1045E000D078CBB2984201D10020F4E70120F2E765
:1045F00070B505460C4604212046FFF7F1F9206806
:1046000008B9012070BD70216268501C606020688C
:10461000815402216268501C606020688154291214
:104620006268501C6060206881546268501C606041
:10463000206885540020E5E701464878022801D02B
:1046400001207047887820B9C8780A2801D1002055
:10465000F7E70120F5E710B5044602212046FFF7F1
:10466000BFF9206808B9012010BDC0216268501C44
:1046700060602068815400216268501C606020687E
:1046800081540020F0E7000010B58021B44800F00C
:1046900084FC0020B349088010BDB248008808B9E6
:1046A00001207047AF480088AF490988884203D18C
:1046B0000020AC490880F4E7AA480088AA4908808D
:1046C0000120EEE72DE9F04104460D46C8262046BC
:1046D00000F0F3FB87B23A462146A448FEF720F9E2
:1046E0000FE0FFF7DAFF48B929469D4800F0AFFB1D
:1046F00020B1FFF7C9FF0020BDE8F0810A20FEF7D6
:1047000027F83000A6F10101CEB2EAD10120F3E78B
:1047100030B589B004460D46FFF7B6FF2A4694A18E
:1047200001A800F055FA96A101A8FFF7CBFF20B928
:104730002A4621468D48FEF7F3F809B030BD70B522
:10474000054600BFFFF7A9FF80B98EA1844800F09D
:104750007EFB044654B10A21204600F05CFB04466F
:1047600014B1641C204670BD0020FCE70A20FDF750
:10477000EFFF2800A5F101018DB2E3D100BFF2E700
:1047800008B501211420FCF7B3FA10208DF80300BE
:104790000220ADF8000003208DF8020069467B4836
:1047A000FBF7EAFF1020ADF8000069467848FBF7F8
:1047B000E3FF28208DF803002020ADF800006946B3
:1047C0007348FBF7D9FF012210217148FCF785F8E7
:1047D00002E00A20FDF7BCFF20216D48FCF75FF8DE
:1047E0000028F6D0012202216848FCF776F8FA206A
:1047F000FDF7AEFF002202216448FCF76EF84FF48B
:10480000FA70FDF7A5FFFFF73FFF62A16348FEF7CF
:10481000A0F803E04FF4FA70FDF79AFF60A161A0E1
:10482000FFF750FF0028F5D160A15C48FEF791F832
:1048300003E04FF4FA70FDF78BFF60A163A0FFF770
:1048400041FF0028F5D164A15448FEF782F803E047
:104850004FF4FA70FDF77CFF63A164A0FFF732FF0D
:104860000028F5D164A14D48FEF773F803E04FF43A
:10487000FA70FDF76DFF4AA163A0FFF723FF002840
:10488000F5D164A14548FEF764F803E04FF4FA70EF
:10489000FDF75EFF42A164A0FFF714FF0028F5D1E9
:1048A00065A13E48FEF755F803E04FF4FA70FDF7B6
:1048B0004FFF3BA164A0FFF705FF0028F5D166A1DB
:1048C0003648FEF746F803E04FF4FA70FDF740FF74
:1048D00033A165A0FFF7F6FE0028F5D166A12F48A9
:1048E000FEF737F803E04FF4FA70FDF731FF2CA123
:1048F00066A0FFF7E7FE0028F5D168A12748FEF77C
:1049000028F803E04FF4FA70FDF722FF67A169A0D1
:10491000FFF7D8FE0028F5D170A12048FEF719F85E
:1049200008BD10B540F225511048FCF709FCB0B1A4
:104930000C480088802802D300200A4908800B48D0
:10494000001D0088C1B2074802880088401C054B42
:1049500018800348815420210448FCF7E8FB10BD6F
:10496000CC000020640000206600002000440040CD
:1049700041542B495053454E443D25640D0A0000D7
:104980003E0000004950444154413A0000080140B3
:1049900000100140312E2041540D0A000038014022
:1049A0004F4B000041540D0A00000000322E204100
:1049B000542B4350494E3F0D0A0000002B435049F1
:1049C0004E3A2052454144590000000041542B43C7
:1049D00050494E3F0D0A0000332E2041542B4352C4
:1049E00045473F0D0A000000312C310041542B4354
:1049F0005245473F0D0A0000342E2041542B4347B7
:104A00005245473F0D0A000041542B43475245474A
:104A10003F0D0A00352E2041542B43474143543D5E
:104A2000312C310D0A00000041542B4347414354BF
:104A30003D312C310D0A0000362E2041542B4347C6
:104A40004154543D310D0A0041542B4347415454C5
:104A50003D310D0A00000000372E2041542B434DFC
:104A60004D55583D300D0A0041542B434D4D55587E
:104A70003D300D0A00000000382E2041542B434DDC
:104A8000484541443D310D0A0000000041542B438C
:104A90004D484541443D310D0A000000392E20416A
:104AA000542B495053544152540D0A00434F4E4E1B
:104AB0004543540041542B495053544152543D22D4
:104AC000544350222C223138332E3233302E34309E
:104AD0002E3339222C363030320D0A0031302E2060
:104AE0004D3633313220496E6974204F4B0D0A0028
:104AF00070B5064600F09EFA056806F10B0020F03E
:104B00000704B4429CBF002070BD2B466A68BAB14E
:104B10001068A04210D304F1080188423CBF5068DD
:104B2000586007D35168101941601168091B016072
:104B300058601460101D70BD13465268002AE7D1FA
:104B40002146284600F082FA0028DED170BD70B5FB
:104B50000446051F00F06EFA0068002C14BF44687C
:104B600070BD002C18BFAC423CBF20466468F8D32F
:104B700001680A18AA4218BF456003D12A68054691
:104B80001144016028684119A1421CBF6C6070BDCE
:104B90006168696021680844286070BD7CB51D4665
:104BA00016460C00009001D02044401E074B7B4469
:104BB0002A4669460190304600F073FD05461CB157
:104BC0000020694600F080FD28467CBD210B0000D6
:104BD0000FB41CB5084B06AA7B44694600900598A3
:104BE00000F05FFD04460020694600F06DFD2046A0
:104BF0001CBC5DF814FB0000ED0A00002DE9F0413B
:104C00000646002410687529314616A510D000F01C
:104C10008EFA002802DA404213A507E031688A07BD
:104C200001D512A502E0490704D511A5012401E030
:104C300000F086FA00210A2206F1240709E0B0FB01
:104C4000F2FCB0FBF2F302FB1C0030307854184643
:104C5000491C0028F3D123462A463046BDE8F041DE
:104C600000F0A0BA000000002D0000002B000000A2
:104C7000200000002DE9F05F894604464FF0000A4D
:104C8000DFF874B1FB44C0F820A02046E1688847F3
:104C9000002874D0252806D0D4E901219047206A45
:104CA000401C2062F1E700265F462046E168884705
:104CB0002028054607DB312D05D2781910F8200C85
:104CC00008B10643F1E7B00701D526F00406C4F8A1
:104CD0001CA00027C4F818A02A2D09D0284601F0EE
:104CE000E6FC38B304EB8708303DC8F8185019E0EB
:104CF00059F8041B204604EB87029161E16888475C
:104D0000012F054618D1E069002820DA26F0200698
:104D10001DE0D8F8180000EB800005EB40003038AB
:104D2000C8F818002046E1688847054601F0BFFC36
:104D30000028EED1012F0AD02E2D08D12046E1689F
:104D400088477F1C0546022F46F02006C4DBA06979
:104D5000002803DA404246F00106A061F00701D0C6
:104D600026F010066C2D0BD0682D09D04C2D39D0B3
:104D70006A2D35D0742D35D07A2D33D016E038E039
:104D8000E1682F4620468847B842054609D16C2F76
:104D900026D04FF48060E1680643204688470546E8
:104DA00004E06C2F1AD04FF4807006430DB3A5F1C8
:104DB0004100192802D8203546F400664A462946A3
:104DC000204626604E46FBF7EDF980B101280BD056
:104DD000F61D26F0070000F1080956E74020E4E739
:104DE0008020D8E70020D6E706F104094DE72846E1
:104DF00052E7206ABDE8F09FAC24000070B506467B
:104E000000F01CF90468054630460A22002100F033
:104E100087FD2C6070BD401ECAB210F8011F8A4287
:104E200002D00029F9D10020704710B5431E13F8B5
:104E3000014F002CFBD105E011F8014B002C03F8C9
:104E4000014B03D0521EF7D20021197010BD30B5AE
:104E500005460B462A4613F8014B12F8010B08B120
:104E6000A042F8D01CB1002802D06D1CF1E7284602
:104E700030BD40EA0103024630B59B0710D14FF028
:104E8000013400E008C208C91D1B9D4315EAC41F78
:104E9000F8D013F0FF0102F8011B0DD01B0AF8E750
:104EA00011F8013B002B02F8013B05D011F8013B42
:104EB000002B02F8013BF3D130BD10B5431C02E0DA
:104EC00010F8011B71B18107FAD14FF0013202C80D
:104ED0008C1A8C4314EAC211F9D0C01A0A0603D006
:104EE000C01E10BDC01A10BD0A0401D0801E10BD26
:104EF0000902FCD0401E10BD421E12F8013F002BDB
:104F0000FBD111F8013B002B02F8013BF9D17047AE
:104F1000032A40F2308010F0030C00F0158011F8E5
:104F2000013BBCF1020F624498BF11F801CB00F8BD
:104F3000013B38BF11F8013BA2F1040298BF00F811
:104F400001CB38BF00F8013B11F0030300F02085CE
:104F5000083AC0F0088051F8043B083A51F804CBF5
:104F6000A0E80810F5E7121D5CBF51F8043B40F8BB
:104F7000043BAFF30080D20724BF11F8013B11F8C6
:104F800001CB48BF11F8012B24BF00F8013B00F80A
:104F900001CB48BF00F8012B70474FF000020429F5
:104FA000C0F0128010F0030C00F01B80CCF1040C58
:104FB000BCF1020F18BF00F8012BA8BF20F8022B8C
:104FC000A1EB0C0100F00DB85FEAC17C24BF00F832
:104FD000012B00F8012B48BF00F8012B70474FF060
:104FE000000200B5134694469646203922BFA0E839
:104FF0000C50A0E80C50B1F12001BFF4F7AF090745
:1050000028BFA0E80C5048BF0CC05DF804EB890035
:1050100028BF40F8042B08BF704748BF20F8022B78
:1050200011F0804F18BF00F8012B70477047704790
:105030007047000000487047540100200048704746
:105040004C010020704770477047704738B50446E0
:105050000A4600206946AFF30080002808BF38BD2B
:1050600002460099204600F0D5FC012038BD012001
:1050700000F07ABEF8B5AFF30080054600200C467C
:10508000102000BF0646A819A0420DD93246694635
:105090000020AFF30080070008BF00F065FE009815
:1050A000A04218BF0546C419FFF7C4FF05600746B4
:1050B000F01D20F007004619284600F00AF8B44217
:1050C00008BFF8BDA21B31463868BDE8F84000F0C3
:1050D000A1BC00210160C0E9011070471020704799
:1050E00070B5044685690068C10601D5302600E028
:1050F0002026C00707D070BDD4E901213046904773
:10510000206A401C20626D1EF6D570BD70B5044645
:1051100085690078C00707D170BDD4E9012120203E
:105120009047206A401C20626D1EF6D570BD09684C
:105130004A0501D540B27047C905FCD500B2704799
:1051400009684A0501D5C0B27047C905FCD580B2CF
:10515000704770B50C460546012A05D028788006B0
:1051600000D5EA69002302E0012305E05B1C9342BD
:1051700002D2E05C0028F9D1A869E618C01AA8613B
:10518000286A184428622846FFF7AAFF04E0D5E9F8
:10519000012114F8010B9047B442F8D32846FFF7D9
:1051A000B5FF70BD2DE9F0470D469946924604467D
:1051B00000F124080168880604D5E06921F0100197
:1051C000216000E00120A84201DD471B00E000272C
:1051D000A1697A1902EB0900081AA0612078C006BB
:1051E00002D42046FFF77CFF002608E0D4E9012125
:1051F0001AF806009047206A401C761C20624E4533
:10520000F4DB2078C0060AD52046FFF769FF06E0E8
:10521000D4E9012130209047206A401C2062381ECA
:10522000A7F10107F4DC07E0D4E9012118F8050033
:105230009047206A401C2062281EA5F10105F3DC7E
:105240002046FFF763FF2078000602D50220BDE864
:10525000F0870120FBE711680268006A530501D559
:1052600008700AE0D30501D5088006E0130603D5CF
:10527000C217C1E9000200E00860012070477047D2
:105280002DE9FF4F0C461E464FF0FF378BB0D2E999
:105290000001DDF860800A908A46C1F30A5505B91D
:1052A0003D46002108464FF00000BAF1000F00F41F
:1052B000400005DA00EB80004FF4400101EA5000A5
:1052C0004FEA9059B9F1010F00DDB9460A9850EA4A
:1052D0004A000ED044F61050A5F2FF3545432F1476
:1052E000B8F1000F1ED07542291E1EDDC9F1000263
:1052F0001CE0B8F1010F4FF0000001D0302103E0B5
:10530000F24305E02154401CB042FBDB3046002252
:10531000002121540B99C1F80880C1E900200FB089
:10532000BDE8F08FBD1B6D1CDEE74A4600DA69421E
:1053300006A800F08BFC06AB93E8070003AB83E8FC
:10534000070050460A9900F0E3FD8DE80700A0F53C
:1053500000501F3800900398002D09DD42F21F0114
:105360004A46084403A90390684601F042F808E061
:10537000A0F500504A461F3803A90390684601F083
:105380004CF88DE807000004000C03D04FF0FF300C
:10539000410800E01046B8F1000F03D0002200924F
:1053A00015461EE0751E05D400F04EFB30326255E6
:1053B0006D1EF9D5B3460122084302D000227F1C9E
:1053C00004E02078302801D100227F1E002A0997AE
:1053D00086D01DE0112D07DA00F036FB3032625521
:1053E0006D1C50EA0102F5D1084302D00098C8B103
:1053F0000EE00021681E05E0235C625C63542254C9
:10540000401E491C8142F7DBAB46A81B401E099099
:10541000002004F80B000B98099AC0F80880C0E936
:10542000002B7CE711264FF0000859E72DE9F04FDB
:1054300088460446D21D22F0070191B0D1E900014F
:10544000CDE90A0101F01FF902460B98C00F01D007
:105450002D2007E02068810701D52B2002E02021C4
:1054600001EAC000032A099001D0072A05DB0346A0
:105470004146204600F02EFB0BE12078800601D546
:10548000E06900E00620B8F1650F814606D0B8F16A
:10549000660F18D0B8F1670F70D131E00020B9F174
:1054A000110F009001DB112301E009F101030AAAA9
:1054B00001A90CA8FFF7E4FEDDE90C70002609F154
:1054C0000105834647E001204B4600904FF000471E
:1054D0000AAA01A90CA8FFF7D3FEDDE90DB00C99CB
:1054E0005D46002610B909F101000D18B9EB050061
:1054F00003D4C0F1FF3609F10105A5EB09002BE04B
:10550000B9F1010F01DA4FF001090020B9F1110FD3
:105510000090484601DD112300E003460AAA01A9D4
:105520000CA8FFF7ADFEDDE90C704D460026834662
:10553000207800070AD4AB4500DA5D4601A8012DAA
:1055400004DD411911F8011C302907D04F4502DA5A
:1055500017F1040F04DA012082460FE06D1EEEE71A
:10556000002F02DCED1B3E4403E0781CA84200DD66
:105570007D1CB81B00F1010A4FF00047207800079E
:1055800003D4AA4501DB4FF0FF3A0021B7F1004FE9
:105590000DF143088DF8431024D002202B23002F57
:1055A00001DA7F422D230A21021EA0F1010000DC56
:1055B0005FB197FBF1FC97FBF1F201FB1C7C1746F6
:1055C0000CF1300C08F801CDEEE7A8F101000370F2
:1055D0002188090501D5452100E06521A0F10108D8
:1055E00000F8011C09980FA9A1EB0807FF1D00B1E5
:1055F0000120411901EBEA70A1693844081A401EE4
:10560000A0612078C00602D42046FFF769FD099802
:1056100028B1D4E901219047206A401C20622078FB
:10562000C00622D52046FFF75BFD1EE0002E04DBFE
:10563000B34502DD01A8805D00E03020D4E90121FE
:105640009047206A401C2062761CAAF101005FEAA4
:10565000000A0AD100F0DAF9C0680168405CD4E9B8
:1056600001219047206A401C2062281EA5F10105F7
:10567000DCDC07E0D4E9012118F8010B9047206A2F
:10568000401C2062381EA7F10107F3DC2046FFF71B
:105690003DFD032011B043E601694A1C0261087810
:1056A000704700B58FB0CDE9013100210591054962
:1056B0007944CDE9031011466846FFF7DBFA0FB0D5
:1056C00000BD0000E5FFFFFF0A6802F8010B0A6059
:1056D0007047D1E900239A4202D2531C0B6010702C
:1056E000704700002DE9FF5F15468A460446DFF843
:1056F000AC80F8440027D8E900103E46CDE9001000
:1057000010E03AF816106A4602A800F00DFB411CA2
:1057100007D02178890603D5E269391891420DD85E
:105720000744761C2078800602D5E069B84205DD82
:10573000AE42E6DB3AF816000028E2D1A069C01BB1
:10574000A0612046FFF7CCFCD8E90010CDE900109D
:10575000002017E03AF818106A4602A800F0E4FAB0
:10576000B0F1FF3F81460BD000250DF1080B05E09D
:10577000D4E901211BF8050090476D1C4D45F7D376
:1057800008F10100B0428046E4DB206A3844206220
:105790002046FFF7BBFCBDE8FF9F0000521A000047
:1057A0002DE9F0418046D21D22F007020025D2E902
:1057B0000002F52915A614D0011E72F1000106DAC7
:1057C0000023D0EB030063EB020211A608E0D8F837
:1057D00000108B0701D50FA602E0490701D50EA6E0
:1057E00001251146002408F1240704E000F02CF9FB
:1057F00030323A55641C50EA0102F7D12B4632464A
:1058000021464046BDE8F041FFF7CCBC0000000057
:105810002D0000002B0000002000000030B400210B
:1058200000F1240408E002F00705D208303542EA0E
:105830004372DB086554491C52EA0305F3D104683E
:10584000002310A2250708D504F020040C4304D03F
:10585000C46901230CA2641EC46130BCFFF7A2BC62
:1058600010B5044621461068FFF76AFC0246204640
:10587000BDE810400023D1E7D21D22F00701D1E995
:105880000023CBE70000000030000000F0B40D461C
:105890000188090502D5214C7C4402E01F4C7C4460
:1058A0000E34002100F1240608E002F00F0712096F
:1058B000E75D42EA03721B097754491C52EA030769
:1058C000F3D102780023120704D5702D06D009B158
:1058D000022311342246F0BCFFF764BC01231034CC
:1058E000F8E770B504460D4621461068FFF728FC1E
:1058F000024629462046BDE870400023C6E7D21D77
:1059000022F00703D3E90023C0E70368126843F0DD
:10591000200303600823C3610023B7E7B418000025
:105920002DE9F04791460F4680460446002614F8BC
:10593000015B2DB100F062F80068405DC007F6D150
:105940002B2D02D02D2D18D0641E4A4639462046F4
:1059500000F02CF927B13968A14201D1C7F80080C5
:105960004FF0020471050BD54042002803DDFFF71C
:1059700065FB0460A007BDE8F08746F48066E4E7B5
:105980000028F8DAFFF75AFB04606FF00040F2E7F6
:1059900010B5203AC0F00B80B1E81850203AA0E8CA
:1059A0001850B1E81850A0E81850BFF4F5AF5FEAFE
:1059B000027C24BFB1E81850A0E8185044BF18C9B1
:1059C00018C0BDE810405FEA827C24BF51F8043B58
:1059D00040F8043B08BF7047D20728BF31F8023BAC
:1059E00048BF11F8012B28BF20F8023B48BF00F840
:1059F000012B7047004870474C01002010B500F0A3
:105A000005F8001D10BD00BFE10C00000048704704
:105A10006C010020034640688C46002818BF88426D
:105A20003CBF03464068F8D318681844884207D042
:105A30000CF1030020F00700001D411A521A014624
:105A4000081D0A60FFF783B830B5B0F10A024FEACB
:105A5000900E71F100034EEA817EB0EB0E0061EB17
:105A600091014FEA101E4EEA017E10EB0E0041EB51
:105A700011114FEA102E4EEA016E10EB0E0041EBB1
:105A800011214FEA104E4EEA014E10EB0E0041EB91
:105A90001141401841F100014FEAD00040EA417045
:105AA0004FEAD10110EB80054FEA810444EA90747B
:105AB00044EB01046D1944EB0404521BA3414FF065
:105AC000000348BF0A3200D530BD401C41F100013F
:105AD00030BD00002DE9F0411F4604460326016851
